S01A000047726164756174696F6E5F50726F6A6563742E73726563C6
S11300000C942A000C9454020C9447000C9447005E
S11300100C947D0B0C94730B0C9447000C944700C8
S11300200C9447000C9447000C94B90A0C94600A91
S11300300C9447000C94FF0B0C9447000C94BF16CF
S11300400C9455000C9447000C9447000C94470002
S11300500C94470011241FBECFE5D8E0DEBFCDBF0E
S113006016E0A0E6B0E0E8EEF1E302C005900D92E0
S1130070AE3CB107D9F726E0AEECB6E001C01D9264
S1130080A63FB207E1F70E94CA090C94F2180C9437
S1130090000097B1907E892B87B986B1806486B9B8
S11300A0349BFECF84B195B108951F920F920FB681
S11300B00F9211242F933F934F935F936F937F93EA
S11300C08F939F93AF93BF93EF93FF9387E00E9427
S11300D0490022E3AC01249FC001259F900D112407
S11300E0892F9927869586959093CF068093CE067F
S11300F04C9738F041E060E070E088EC92E40E94B4
S1130100AB008091CE069091CF06469710F40E94E2
S1130110C600FF91EF91BF91AF919F918F917F9115
S11301206F915F914F913F912F910F900FBE0F9060
S11301301F90189540E067E082E00E944201089514
S113014041E067E082E00E944201089567E082E0B6
S11301500E94E1010895442319F0413061F00895AB
S113016040E063E083E00E94420141E066E083E016
S11301700E944201089541E063E083E00E9442014D
S113018040E066E083E00E944201089541E063E0BC
S113019083E00E94420141E066E083E00E94420164
S11301A00895442319F04130C9F10895813091F044
S11301B028F08230D9F0833029F108952AB381E000
S11301C090E002C0880F991F6A95E2F78095822318
S11301D08ABB089527B381E090E002C0880F991F7D
S11301E06A95E2F78095822387BB089524B381E062
S11301F090E002C0880F991F6A95E2F780958223E8
S113020084BB089521B381E090E002C0880F991F58
S11302106A95E2F78095822381BB0895813089F045
S113022028F08230C9F0833011F108952AB381E0B7
S113023090E002C0880F991F6A95E2F7822B8ABB6F
S1130240089527B381E090E002C0880F991F6A9552
S1130250E2F7822B87BB089524B381E090E002C0CB
S1130260880F991F6A95E2F7822B84BB089521B306
S113027081E090E002C0880F991F6A95E2F7822B13
S113028081BB08954423D9F1413009F06BC081301A
S113029091F028F08230D9F0833029F108952BB3FE
S11302A081E090E002C0880F991F6A95E2F780957B
S11302B082238BBB089528B381E090E002C0880FAD
S11302C0991F6A95E2F78095822388BB089525B328
S11302D081E090E002C0880F991F6A95E2F780954B
S11302E0822385BB089522B381E090E002C0880F89
S11302F0991F6A95E2F78095822382BB0895813025
S113030089F028F08230C9F0833011F108952BB3BD
S113031081E090E002C0880F991F6A95E2F7822B72
S11303208BBB089528B381E090E002C0880F991F29
S11303306A95E2F7822B88BB089525B381E090E0AB
S113034002C0880F991F6A95E2F7822B85BB089536
S113035022B381E090E002C0880F991F6A95E2F70A
S1130360822B82BB0895813079F028F08230A9F085
S11303708330E1F024C089B390E002C0959587955D
S11303806A95E2F78170089586B390E002C095956E
S113039087956A95E2F78170089583B390E002C06F
S11303A0959587956A95E2F78170089580B390E0FA
S11303B002C0959587956A95E2F78170089580E06B
S11303C00895813089F028F08230C9F0833011F12A
S11303D008952BB381E090E002C0880F991F6A95BD
S11303E0E2F782278BBB089528B381E090E002C036
S11303F0880F991F6A95E2F7822788BB089525B371
S113040081E090E002C0880F991F6A95E2F7822785
S113041085BB089522B381E090E002C0880F991F44
S11304206A95E2F7822782BB08951F93CF93DF93E7
S1130430162FD42F883008F087E0C82FC0650E949B
S1130440B3078C2F0E94BF07812F0E94DB078D2FDB
S11304500E94DB070E94E9078FE39CE90197F1F70B
S113046000C00000DF91CF911F910895CF93DF93D7
S1130470D62F883008F087E0C82FC0650E94B307E4
S11304808C2F0E94BF078D2F0E94DB070E94B907A3
S11304908C2F0E94D0070E94E207C82F0E94E90710
S11304A08C2FDF91CF9108951F920F920FB60F9268
S11304B011242F923F924F925F927F928F929F923C
S11304C0AF92BF92CF92DF92EF92FF920F931F935E
S11304D02F933F934F935F936F937F938F939F9348
S11304E0AF93BF93EF93FF93CF93DF93CDB7DEB773
S11304F02897DEBFCDBF8091D1069091D206892B7B
S113050009F0D3C10E94320985EF91E00E94E80B03
S113051081E790E00E94E80B61E670E080E090E003
S11305200E94F309712C00E0ACC187E890E00E94BE
S1130530AC0810E015C00E94EF078093D0060CC0F1
S1130540E1E0F0E0EC0FFD1FE10FF11D80830E945C
S11305506B081092D0061F5F8091D0068111F0CFF6
S1130560143048F360E081E00E94360982E990E0AB
S11305700E94AC0810E016C00E94EF078093D006DA
S11305800DC0E5E0F0E0EC0FFD1FE10FF11D8083ED
S11305908AE20E946B081092D0061F5F8091D006F9
S11305A08111EFCF143040F30E9432098CE990E0BE
S11305B00E94AC0860E081E00E9436098CEA90E079
S11305C00E94AC0804C00E94EF078093D00680917B
S11305D0D0068A3211F08332B1F78A32E9F40E94EC
S11305E0320982E990E00E94AC0810E00AC0E5E01C
S11305F0F0E0EC0FFD1FE10FF11D80810E946B08FC
S11306001F5F1430A0F32FEF89E698E1215080405A
S11306109040E1F700C000000E94320910E006C1DA
S1130620A980B12CE12EF12C67012FEFC21AD20A56
S1130630B60180E090E00E943602A816B90609F0DF
S1130640F4C0AA80B12C470182E0880E911CB40149
S113065080E090E00E943602A816B90609F0E5C0D1
S1130660AB80B12C170193E0290E311CB10180E05D
S113067090E00E943602A816B90609F0D6C04C8054
S1130680512C570124E0A20EB11CB50180E090E08A
S11306900E9436024816590609F0C7C0ED80F12CB5
S11306A0B60181E090E00E943602E816F90609F0EE
S11306B0BCC0EE80F12CB40181E090E00E943602CF
S11306C0E816F90609F0B1C0EF80F12CB10181E020
S11306D090E00E943602E816F90609F0A6C0E88404
S11306E0F12CB50181E090E00E943602E816F9068B
S11306F009F09BC08091F406882311F0823029F51B
S113070081E090E09093D2068093D1068AEB90E04A
S11307100E94AC0860E081E00E94360988EC90E019
S11307200E94AC081091F1061F5F8FEF99E628E153
S1130730815090402040E1F700C000000E9432093F
S11307406894772472F804E070C0813009F069C0BD
S11307500E94320981ED90E00E94AC088FEF99E687
S113076028E1815090402040E1F700C000000E9441
S1130770320985EF91E00E94E80B8EED90E00E9433
S1130780E80B8CE091E00E94E80B85EF91E00E9479
S1130790E80B85EF91E00E94E80B5F9BFECF8CB1E4
S11307A08093F50685EF91E00E94E80B8091F506B1
S11307B08133A9F481E090E09093D2068093D1062E
S11307C08AEB90E00E94AC0860E081E00E94360968
S11307D088EC90E00E94AC080E946F0B0CC082333E
S11307E051F41092D2061092D1060E9432098AE383
S11307F091E00E94AC081091F1061F5F8FEF99E61B
S113080028E1815090402040E1F700C000000E94A0
S1130810320988E08093F5066894772472F804E03E
S113082004C06894772472F804E01C5F8091F10698
S1130830811708F0F5CE0430B9F087E491E00E9406
S1130840AC0860E081E00E94360987E591E00E94EF
S1130850AC088FEF99E628E1815090402040E1F701
S113086000C000000E9432090F5F033049F40E9467
S1130870320981E691E00E94AC080E947D04FDCF1C
S1130880739482E0871508F050CE8FE691E00E94C1
S1130890E80B80E891E00E94E80B85EF91E00E946C
S11308A0E80B85EF91E00E94E80B28960FB6F894C8
S11308B0DEBF0FBECDBFDF91CF91FF91EF91BF910E
S11308C0AF919F918F917F916F915F914F913F91E4
S11308D02F911F910F91FF90EF90DF90CF90BF90D9
S11308E0AF909F908F907F905F904F903F902F900C
S11308F00F900FBE0F901F9018950E949A000E94AF
S1130900A8090E94B9090E945F092FEF8DEE92E0B9
S1130910215080409040E1F700C000000E9465092A
S11309202FEF8DEE92E0215080409040E1F700C01F
S113093000000E94A8090E945F092FEF8DEE92E04B
S1130940215080409040E1F700C000000E946509FA
S11309502FEF8DEE92E0215080409040E1F700C0EF
S113096000000E9497092FEF8DEE92E02150804005
S11309709040E1F700C000000E949D092FEF8DEE2A
S113098092E0215080409040E1F700C000000E94B6
S113099097092FEF8DEE92E0215080409040E1F7CF
S11309A000C000000E949D092FEF8DEE92E02150BF
S11309B080409040E1F700C000000E945F090E945F
S11309C097092FEF8DEE92E0215080409040E1F79F
S11309D000C000000E9465090E949D092FEF8DEE62
S11309E092E0215080409040E1F700C000000E9456
S11309F065090E949D092FEF8DEE92E02150804001
S1130A009040E1F700C000000E945F090E9497092E
S1130A102FEF8DEE92E0215080409040E1F700C02E
S1130A2000000E9465090E949D092FEF8DEE92E05F
S1130A30215080409040E1F700C000000E945F090F
S1130A402FEF8DEE92E0215080409040E1F700C0FE
S1130A5000000E9465090E9497092FEF8DEE92E035
S1130A60215080409040E1F700C000000E949D09A1
S1130A702FEF8DEE92E0215080409040E1F700C0CE
S1130A8000000E945F092FEF8DEE92E0215080401C
S1130A909040E1F700C000000E9465090E94970998
S1130AA02FEF8DEE92E0215080409040E1F700C09E
S1130AB000000E949D092FEF8DEE92E021508040AE
S1130AC09040E1F700C000000E945F092FEF8DEE17
S1130AD092E0215080409040E1F700C000000E9465
S1130AE065090E9497092FEF8DEE92E02150804016
S1130AF09040E1F700C000000E949D092FEF8DEEA9
S1130B0092E0215080409040E1F700C000000E9434
S1130B10A0000E945F092FEF8DEE92E021508040EB
S1130B209040E1F700C000000E9465090E94970907
S1130B302FEF8DEE92E0215080409040E1F700C00D
S1130B4000000E949D092FEF8DEE92E0215080401D
S1130B509040E1F700C000000E945F092FEF8DEE86
S1130B6092E0215080409040E1F700C000000E94D4
S1130B7065092FEF8DEE92E0215080409040E1F71F
S1130B8000C000000E9497092FEF8DEE92E02150E3
S1130B9080409040E1F700C000000E949D092FEFC3
S1130BA08DEE92E0215080409040E1F700C00000BB
S1130BB00E9497092FEF8DEE92E0215080409040E3
S1130BC0E1F700C000000E949D092FEF8DEE92E036
S1130BD0215080409040E1F700C000000E945F096E
S1130BE00E9497092FEF8DEE92E0215080409040B3
S1130BF0E1F700C000000E9465090E949D092FEFE3
S1130C008DEE92E0215080409040E1F700C000005A
S1130C100E945F090E9497092FEF8DEE92E0215008
S1130C2080409040E1F700C000000E9465090E94E6
S1130C309D092FEF8DEE92E0215080409040E1F726
S1130C4000C000000E945F092FEF8DEE92E021505A
S1130C5080409040E1F700C000000E9465090E94B6
S1130C6097092FEF8DEE92E0215080409040E1F7FC
S1130C7000C000000E949D092FEF8DEE92E02150EC
S1130C8080409040E1F700C000000E945F092FEF10
S1130C908DEE92E0215080409040E1F700C00000CA
S1130CA00E9465090E9497092FEF8DEE92E0215072
S1130CB080409040E1F700C000000E949D092FEFA2
S1130CC08DEE92E0215080409040E1F700C000009A
S1130CD00E946B090E94A6002FEF8DEE92E0215036
S1130CE080409040E1F700C000000E946B090E9420
S1130CF0A6002FEF83EC99E0215080409040E1F76B
S1130D0000C000000E946B090E94A6002FEF89E634
S1130D1098E1215080409040E1F700C000000E941B
S1130D206B090E94A6002FEF81EE94E021508040D1
S1130D309040E1F700C000000E946B090E94A600E9
S1130D402FEF8DEE92E0215080409040E1F700C0FB
S1130D5000000E946B090E94A6002FEF8DEE92E026
S1130D60215080409040E1F700C000000E946B09D0
S1130D700E94A6008FE39CE90197F1F700C00000F0
S1130D800E946B090E94A6009FEF2DEE82E0915015
S1130D9020408040E1F700C000000E946B090E94DF
S1130DA0A6009FEF2DEE82E0915020408040E1F7B5
S1130DB000C000000E946B090E94A6009FEF2DEE68
S1130DC082E0915020408040E1F700C000000E9482
S1130DD0A3090E94B4090E946B090E9487090E941A
S1130DE0C5090E94A6009FEF23EC89E091502040A2
S1130DF08040E1F700C000000E946B090E94A30933
S1130E000E94B4090E9487090E94C5090E94A60095
S1130E109FEF2DEE82E0915020408040E1F700C02A
S1130E2000000E94A3090E94B4090E946B090E9459
S1130E3087090E94C5090E94A6009FEF21EE84E065
S1130E40915020408040E1F700C000000E94A309B7
S1130E500E94B4090E946B090E9487090E94C50977
S1130E600E94A6009FEF2DEE82E09150204080402A
S1130E70E1F700C000000E94A3090E94B4090E9487
S1130E806B090E9487090E94C5090E94A6009FEF72
S1130E9023ED80E3915020408040E1F700C0000042
S1130EA00E94A3090E94B4090E946B090E94870949
S1130EB00E94C5090E94A6008FE39CE90197F1F7FF
S1130EC000C000000E94A3090E94B4090E946B099B
S1130ED00E9487090E94C5090E94A6008FE39CE92D
S1130EE00197F1F700C000000E94A3090E94B40911
S1130EF00E946B090E9487090E94C5090E94A600EE
S1130F009FEF21EE84E0915020408040E1F700C043
S1130F1000000E946B090E949A009FEF24E38CE07A
S1130F20915020408040E1F700C000000E946B090E
S1130F300E94A6009FEF24E38CE091502040804063
S1130F40E1F700C000000E946B090E949A009FEF25
S1130F502DEE82E0915020408040E1F700C0000077
S1130F600E94A000089584EA86BF06B607FEFDCF5E
S1130F70089584EA86BF06B607FEFDCF0895880F5C
S1130F8083B984E886BF06B607FEFDCF2FEF81EE56
S1130F9094E0215080409040E1F700C000000895A3
S1130FA090E0880F991F816083B984E886BF06B6F4
S1130FB007FEFDCF089583B984E886BF06B607FE11
S1130FC0FDCF089584E886BF06B607FEFDCF83B142
S1130FD0089584E986BF86B7806886BF08951F9305
S1130FE0CF93DF93D0E010E028C041E06D2F80E084
S1130FF00E944201C3E019C06C2F80E00E94B3013B
S1131000811112C0EC2FF0E03397EE0FFF1FEE0FAB
S1131010FF1FE05AFF4FED0FF11D10816C2F80E090
S11310200E94B3018823D1F3CF5FC73028F340E097
S11310306D2F80E00E944201DF5FD330B0F2812F38
S1131040DF91CF911F910895CF93C82F41E060E0C5
S113105081E00E94420141E061E081E00E9442019E
S113106041E062E081E00E94420188B39C2F907FBE
S11310708F70892B88BB40E062E081E00E944201CE
S11310808FE99FE00197F1F700C0000041E062E0C2
S113109081E00E94420120E1C29FC001112498B363
S11310A09F70892B88BB40E062E081E00E9442018E
S11310B08FE99FE00197F1F700C0000041E062E092
S11310C081E00E9442018FE19EE40197F1F700C0A4
S11310D00000CF910895CF93C82F40E060E081E0F5
S11310E00E94420141E061E081E00E94420141E04E
S11310F062E081E00E94420188B39C2F907F8F7050
S1131100892B88BB40E062E081E00E9442018FE9C4
S11311109FE00197F1F700C0000041E062E081E048
S11311200E94420120E1C29FC001112498B39F7024
S1131130892B88BB40E062E081E00E9442018FE994
S11311409FE00197F1F700C0000041E062E081E018
S11311500E944201CF9108950F931F93CF938C0166
S1131160C0E003C00E946B08CF5FF801EC0FF11DD3
S113117080818111F7CFCF911F910F9108958F92A4
S11311809F92AF92BF92EF92FF920F931F93CF93D0
S1131190DF934B015C01672B682B692B19F480E307
S11311A00E946B0801E010E0E12CF12C2FC0C70174
S11311B0880F991FB701660F771F660F771F660F99
S11311C0771F7C01E60EF71EC501B4012AE030E06A
S11311D040E050E00E94A218E60EF71EE114F1046C
S11311E059F4C801880F991F000F111F000F111F18
S11311F0000F111F080F191FC501B4012AE030E0C8
S113120040E050E00E94A21849015A01811491045F
S1131210A104B10461F6A12CB12C16C0C7016AE087
S113122070E00E948E18D62FC72F805D0E946B0835
S1131230ED2EFC2EE114F10439F40A30110524F0EA
S11312407801AA24A394B12CEA14FB0439F7DF91A2
S1131250CF911F910F91FF90EF90BF90AF909F900F
S11312608F90089581E00E9424080895CF93DF931E
S113127000D0CDB7DEB790E8998390EC9A838230A2
S113128008F080E0683208F060E0E1E0F0E0EC0FA4
S1131290FD1FE80FF11D8081860F0E9424080F9026
S11312A00F90DF91CF91089541E062E082E00E94C7
S11312B0D10041E062E082E00E944201089540E0F2
S11312C062E082E00E944201089541E062E082E02F
S11312D00E944201089562E082E00E94E1010895C3
S11312E041E063E082E00E94D10041E063E082E0FB
S11312F00E944201089540E063E082E00E944201BE
S1131300089541E063E082E00E944201089563E0B1
S113131082E00E94E101089541E064E082E00E94DD
S1131320D10041E064E082E00E944201089540E07F
S113133064E082E00E944201089541E064E082E0BA
S11313400E944201089564E082E00E94E101089550
S113135040E065E082E00E944201089541E065E0DA
S113136082E00E944201089565E082E00E94E1016A
S1131370089540E066E082E00E944201089541E061
S113138066E082E00E944201089566E082E00E94E5
S1131390E10108950E9454090E9470090E948C0979
S11313A00E94020A0E945B0A61E070E080E090E023
S11313B00E940F0A8091E106813021F40E946B099A
S11313C01092E1068091E006813021F40E948709A1
S11313D01092E0068091DF06813061F70E94A30934
S11313E01092DF06E7CF1DBC1CBC27E833E137BDF4
S11313F026BD7BBD6ABD8FB5826A8FBD8EB58B61FC
S11314008EBD08958FB780688FBF83B7877F83BFF2
S113141083B78F7B83BF89B7816089BF08950F939A
S11314201F939B01AC01A8EEB3E00E94C4188B018A
S11314309C01689415F83695279517950795169489
S1131440D1F7013041E014072105310560F4802F04
S113145081958093E60682BF81E090E09093E80650
S11314608093E70624C001110CC0AB01BC01032E1C
S11314703EE076956795579547953A95D1F7302D87
S11314800DC0AB01BC01032E3EE0769567955795E0
S113149047953A95D1F7302D4F5F5F4F5093E8064B
S11314A04093E706802F81958093E60682BF1F91C3
S11314B00F910895089583B7887F856083BF089549
S11314C01F920F920FB60F9211244F935F936F9355
S11314D07F938F939F93AF93BF938091DB069091FB
S11314E0DC06A091DD06B091DE060196A11DB11DBA
S11314F08093DB069093DC06A093DD06B093DE06B2
S11315004091E7065091E80660E070E08417950783
S1131510A607B70709F58091E2068F5F8093E2067C
S1131520843119F491E09093E106893119F491E042
S11315309093E0068E3129F481E08093DF061092C7
S1131540E2061092DB061092DC061092DD06109281
S1131550DE068091E60682BFBF91AF919F918F9185
S11315607F916F915F914F910F900FBE0F901F90DD
S113157018951F920F920FB60F9211244F935F93F9
S11315806F937F938F939F93AF93BF938091D7066D
S11315909091D806A091D906B091DA060196A11DC2
S11315A0B11D8093D7069093D806A093D906B09323
S11315B0DA0681309105A105B105B9F44091E70639
S11315C05091E80660E070E084179507A607B70716
S11315D061F41092D7061092D8061092D906109290
S11315E0DA068091E6068CBF1EC081309105A10504
S11315F0B10519F48FEF8CBF16C04091E7065091E6
S1131600E80660E070E084179507A607B70759F469
S11316101092D7061092D8061092D9061092DA06C4
S11316208091E6068CBFBF91AF919F918F917F917E
S11316306F915F914F910F900FBE0F901F9018956F
S11316400F931F939B01AC01A8EEB3E00E94C41852
S11316508B019C01689415F8369527951795079585
S11316601694D1F7013041E014072105310560F4E7
S1131670802F81958093E30684BD81E090E0909370
S1131680E5068093E40624C001110CC0AB01BC0143
S1131690032E3EE076956795579547953A95D1F791
S11316A0302D0DC0AB01BC01032E3EE0769567954D
S11316B0579547953A95D1F7302D4F5F5F4F50932B
S11316C0E5064093E406802F81958093E30684BD6C
S11316D01F910F91089585B5876085BD089585B5DF
S11316E0887F85BD08951F920F920FB60F92112423
S11316F00F900FBE0F901F9018951F920F920FB668
S11317000F9211244F935F936F937F938F939F93C3
S1131710AF93BF938091D3069091D406A091D50640
S1131720B091D6060196A11DB11D8093D306909366
S1131730D406A093D506B093D60681309105A105B1
S1131740B105B9F44091E4065091E50660E070E01B
S113175084179507A607B70761F41092D306109271
S1131760D4061092D5061092D6068091E30683BD66
S11317701EC081309105A105B10519F48FEF83BD19
S113178016C04091E4065091E50660E070E08417CD
S11317909507A607B70759F41092D3061092D406FA
S11317A01092D5061092D6068091E30683BDBF91B0
S11317B0AF919F918F917F916F915F914F910F9016
S11317C00FBE0F901F9018958CB95D9BFECF0895A6
S11317D00F931F93CF938C01C0E003C00E94E40BCE
S11317E0CF5FF801EC0FF11D80818A30B9F7CF91FA
S11317F01F910F9108955D9BFECF8CB108951F92A8
S11318000F920FB60F9211244F925F926F927F92B4
S11318108F929F92AF92BF92CF92DF92EF92FF92FC
S11318200F931F932F933F934F935F936F937F93E4
S11318308F939F93AF93BF93EF93FF93CF93DF93D4
S1131840CDB7DEB76497DEBFCDBF19821A821B8283
S11318501C821D821E821F82188619861A861B8688
S11318601C861D861E861F86188A198A1A8A1B8A58
S11318701C8A8091D106811102C00E946B0B809159
S1131880F40681110BC25F9BFECF8CB18093F306EB
S1131890912C00C28091F306813309F0E4C085EFF6
S11318A091E00E94E80B85EF91E00E94E80B86EA44
S11318B091E00E94E80B85EF91E00E94E80B10E0B4
S11318C00EC05F9BFECFE12EF12C0E94FB0BEDE0DE
S11318D0F0E0EC0FFD1FEE0DFF1D80831F5F143041
S11318E080F385EF91E00E94E80B85EF91E00E9480
S11318F0E80B83EC91E00E94E80B85EF91E00E94F5
S1131900E80B10E00EC05F9BFECFE12EF12C0E948D
S1131910FB0BE1E1F0E0EC0FFD1FEE0DFF1D8083FA
S11319201F5F143080F3812C84C0CD84D12C082D0A
S113193010E078018FEFE81AF80AB70185E090E02B
S11319400E943602C816D90609F071C0CE84D12C83
S1131950380182E0680E711CB30185E090E00E94BA
S11319603602C816D90609F062C0AF84B12C6801EA
S113197083E0C80ED11CB60185E090E00E943602D7
S1131980A816B90609F053C0A888B12C0C5F1F4FE4
S1131990B80185E090E00E943602A816B90609F065
S11319A046C0A988B12CB70186E090E00E943602B7
S11319B0A816B906E1F5EA88F12CB30186E090E0B7
S11319C00E943602E816F90691F5EB88F12CB6016F
S11319D086E090E00E943602E816F90641F5EC88AC
S11319E0F12CB80186E090E00E943602E816F90670
S11319F0F1F485EF91E00E94E80B85EF91E00E94FD
S1131A00E80B80EE91E00E94E80B85EF91E00E94E4
S1131A10E80B80907000839481E08093F4068093B7
S1131A20F2061092F3060F2EF5E09F2EF02D84E0BF
S1131A30880E80917000881508F077CF8091F406A5
S1131A4081111BC185EF91E00E94E80B85EF91E0C5
S1131A500E94E80B88EF91E00E94E80B85EF91E08B
S1131A600E94E80B0AC1823309F0E1C085EF91E0DE
S1131A700E94E80B86EA91E00E94E80B85EF91E072
S1131A800E94E80B10E00EC05F9BFECFE12EF12C0C
S1131A900E94FB0BE5E0F0E0EC0FFD1FEE0DFF1DD7
S1131AA080831F5F143080F385EF91E00E94E80B80
S1131AB085EF91E00E94E80B83EC91E00E94E80B33
S1131AC085EF91E00E94E80B10E00EC05F9BFECF13
S1131AD0E12EF12C0E94FB0BE9E0F0E0EC0FFD1F7E
S1131AE0EE0DFF1D80831F5F143080F3B12C85C081
S1131AF0CD80D12C0B2D10E078018FEFE81AF80A75
S1131B00B70182E090E00E943602C816D90609F0B7
S1131B1072C0CE80D12C280182E0480E511CB20143
S1131B2082E090E00E943602C816D90609F063C02C
S1131B30CF80D12C380183E0680E711CB30182E0A0
S1131B4090E00E943602C816D90609F054C0C88431
S1131B50D12C0C5F1F4FB80182E090E00E94360246
S1131B60C816D90609F047C0C984D12CB70183E04F
S1131B7090E00E943602C816D906E9F5EA84F12CF1
S1131B80B20183E090E00E943602E816F90699F566
S1131B90EB84F12CB30183E090E00E943602E81656
S1131BA0F90649F5EC84F12CB80183E090E00E9439
S1131BB03602E816F906F9F485EF91E00E94E80B85
S1131BC085EF91E00E94E80B81E292E00E94E80B2D
S1131BD085EF91E00E94E80BB090F006B39482E0A8
S1131BE08093F40681E08093F2061092F3060F2EA0
S1131BF0F5E09F2EF02D84E0B80E8091F0068B1551
S1131C0008F076CF8091F406811137C085EF91E01A
S1131C100E94E80B85EF91E00E94E80B88E392E0D4
S1131C200E94E80B85EF91E00E94E80B26C085EF47
S1131C3091E00E94E80B85EF91E00E94E80B80E6BA
S1131C4092E00E94E80B85EF91E00E94E80B85EF9B
S1131C5091E00E94E80B8EE792E00E94E80B8EE888
S1131C6092E00E94E80B85EF91E00E94E80B9A94C1
S1131C705F9BFECF8CB18093F30682E0981209C07B
S1131C800E94320981E691E00E94AC080E947D0422
S1131C90FDCF939482E0891508F0FCCD8091F40681
S1131CA0813009F0F4C58091F206811104C08CB131
S1131CB08093F50605C088E08093F5061092F2063D
S1131CC08091F5068133B9F46CE371E080E090E033
S1131CD00E94F3098091D10681116FC50E943209D7
S1131CE08DE992E00E94AC0860ED77E080E090E03E
S1131CF00E94200B62C58233B9F461E670E080E093
S1131D0090E00E94F3098091D106811156C50E948A
S1131D1032098AEA92E00E94AC0860ED77E080E044
S1131D2090E00E94200B49C5833309F08AC085EFF7
S1131D3091E00E94E80B85EF91E00E94E80B87EBAD
S1131D4092E00E94E80B8AEE92E00E94E80B85EF95
S1131D5091E00E94E80B5F9BFECF0E94FB0B8093F7
S1131D60F506813369F40E945F098091D1068111DF
S1131D7061C00E94320988EF92E00E94AC085AC008
S1131D80823369F40E947B098091D106811152C08B
S1131D900E94320987E093E00E94AC084BC0833371
S1131DA069F40E9497098091D106811143C00E9471
S1131DB0320986E193E00E94AC083CC0843369F4A4
S1131DC00E94A8098091D106811134C00E94320971
S1131DD085E293E00E94AC082DC0853369F40E942B
S1131DE0B9098091D106811125C00E94320984E38A
S1131DF093E00E94AC081EC08633E1F40E945F09A0
S1131E000E947B090E9497090E94A8090E94B909AF
S1131E108091D10681110EC00E94320983E493E0BF
S1131E200E94AC0860E081E00E94360980E093E003
S1131E300E94AC0860ED77E080E090E00E94200B07
S1131E40BCC4843309F08AC085EF91E00E94E80B9A
S1131E5085EF91E00E94E80B81E593E00E94E80B96
S1131E608AEE92E00E94E80B85EF91E00E94E80B75
S1131E705F9BFECF0E94FB0B8093F506813369F4D0
S1131E800E9465098091D106811161C00E943209C6
S1131E9084E893E00E94AC085AC0823369F40E943B
S1131EA081098091D106811152C00E94320983E9CF
S1131EB093E00E94AC084BC0833369F40E949D09EF
S1131EC08091D106811143C00E94320982EA93E0D5
S1131ED00E94AC083CC0843369F40E94AE0980912E
S1131EE0D106811134C00E94320981EB93E00E9433
S1131EF0AC082DC0853369F40E94BF098091D106D6
S1131F00811125C00E94320980EC93E00E94AC0844
S1131F101EC08633E1F40E9465090E9481090E9473
S1131F209D090E94AE090E94BF090E943209809156
S1131F30D10681110CC083E493E00E94AC0860E0F8
S1131F4081E00E9436098CE893E00E94AC0860EDC1
S1131F5077E080E090E00E94200B2FC4853309F0E5
S1131F60CFC085EF91E00E94E80B85EF91E00E94DD
S1131F70E80B8FEC93E00E94E80B85EF91E00E9460
S1131F80E80B1092E9061092EA061092EB06109202
S1131F90EC0600E038C05F9BFECFE02EF12C0E94DF
S1131FA0FB0B182FF701E351F94F808380ED810F6C
S1131FB08A3038F520E030E040E251E46091E906EF
S1131FC07091EA068091EB069091EC060E9421182C
S1131FD06B017C01612F70E060537109072E000CC6
S1131FE0880B990B0E946C17A70196010E94CA16D0
S1131FF06093E9067093EA068093EB069093EC06EF
S113200001C005E00F5F033030F28091D1068111E9
S113201023C00E94320989EF93E00E94AC0860E07B
S113202081E00E94360982E094E00E94AC0860914D
S1132030E9067091EA068091EB069091EC060E9405
S11320403B170E94BF0885E20E946B0860ED77E0B1
S113205080E090E00E94200BC090E906D090EA0650
S1132060E090EB06F090EC0620E030E048E652E425
S1132070C701B6010E941C188823BCF020E030E0A0
S113208040E752E4C701B6010E94361718166CF0F7
S113209080E090E0ACE5B2E48093E9069093EA0630
S11320A0A093EB06B093EC0620C020E030E040E7BC
S11320B052E4C701B6010E941C181816B4F420E0BB
S11320C030E048E752E4C701B6010E9436171816FB
S11320D064F080E090E0A2E8B2E48093E906909393
S11320E0EA06A093EB06B093EC066091E9067091C2
S11320F0EA068091EB069091EC060E945A0A5DC3B1
S1132100863309F010C185EF91E00E94E80B85EF5A
S113211091E00E94E80B8EE094E00E94E80B8EE1CF
S113212094E00E94E80B8AE294E00E94E80B5F9B33
S1132130FECF0E94FB0B8093F506813309F04BC060
S113214085EF91E00E94E80B85EF91E00E94E80B97
S113215086E394E00E94E80B10E00FC01F5F5F9BD2
S1132160FECF0E94FB0B6091F106610F482F50E0F7
S113217070E080E090E00E941502143078F385EF5F
S113218091E00E94E80B85EF91E00E94E80B8BE55B
S113219094E00E94E80B10E00FC01F5F5F9BFECF2E
S11321A00E94FB0B6091F106610F482F50E070E034
S11321B081E090E00E941502143078F34091F1061A
S11321C04C5F4093F10650E060E070E084E090E002
S11321D00E9415029BC0823309F04BC085EF91E049
S11321E00E94E80B85EF91E00E94E80B86E394E0FF
S11321F00E94E80B10E00FC01F5F5F9BFECF0E94A0
S1132200FB0B6091F006610F482F50E070E082E014
S113221090E00E941502143078F385EF91E00E945B
S1132220E80B85EF91E00E94E80B8BE594E00E94B7
S1132230E80B10E00FC01F5F5F9BFECF0E94FB0BFB
S11322406091F006610F482F50E070E083E090E069
S11322500E941502143078F34091F0064C5F4093CD
S1132260F00650E061E070E084E090E00E94150226
S11322704DC0833309F04AC085EF91E00E94E80B1A
S113228085EF91E00E94E80B86E394E00E94E80B5E
S113229010E00FC01F5F5F9BFECF0E94FB0B60919D
S11322A07000610F482F50E070E085E090E00E94DC
S11322B01502143078F385EF91E00E94E80B85EF66
S11322C091E00E94E80B8BE594E00E94E80B10E09B
S11322D00FC01F5F5F9BFECF0E94FB0B60917000DD
S11322E0610F482F50E070E086E090E00E941502F4
S11322F0143078F3409170004C5F4093700050E0CC
S113230062E070E084E090E00E94150285EF91E0C5
S11323100E94E80B85EF91E00E94E80B80E894E0CE
S11323200E94E80B4AC2873309F028C285EF91E086
S11323300E94E80B85EF91E00E94E80B8AE994E0A3
S11323400E94E80B86ED94E00E94E80B86EE94E090
S11323500E94E80B82EF94E00E94E80B5F9BFECFA3
S11323600E94FB0B8093F506813309F0A8C085EF2A
S113237091E00E94E80B85EF91E00E94E80B8EEF5C
S113238094E00E94E80B10E00EC05F9BFECFE12EAC
S1132390F12C0E94FB0BE1E0F0E0EC0FFD1FEE0DD1
S11323A0FF1D80831F5F143080F310E000E073C0D2
S11323B0C980D12CE12EF12CB7016F5F7F4F80E0F3
S11323C090E00E943602C816D90609F063C0CA809C
S11323D0D12CB7016E5F7F4F80E090E00E943602FF
S11323E0C816D90609F056C0CB80D12CB7016D5F51
S11323F07F4F80E090E00E943602C816D90609F0AB
S113240049C0CC80D12CB7016C5F7F4F80E090E055
S11324100E943602C816D906E9F51F5F1DC0E12ED9
S1132420F12C670184E0C80ED11CB60180E090E075
S11324300E943602AC01B70180E090E00E941502D0
S1132440B60181E090E00E943602AC01B70181E060
S113245090E00E9415021F5F4091F1064117F8F6C3
S113246044504093F10650E060E070E084E090E076
S11324700E9415021091F1061F5F85EF91E00E9402
S1132480E80B85EF91E00E94E80B8DE195E00E9456
S1132490E80B01E01C5F8091F106811708F088CFFA
S11324A001118BC185EF91E00E94E80B85EF91E06B
S11324B00E94E80B89E395E00E94E80B7EC1823319
S11324C009F0A8C085EF91E00E94E80B85EF91E048
S11324D00E94E80B8DE495E00E94E80B10E00EC02A
S11324E05F9BFECFE12EF12C0E94FB0BE5E0F0E0B8
S11324F0EC0FFD1FEE0DFF1D80831F5F143080F372
S113250010E000E073C0CD80D12CE12EF12CB70196
S11325106F5F7F4F82E090E00E943602C816D906B2
S113252009F063C0CE80D12CB7016E5F7F4F82E08B
S113253090E00E943602C816D90609F056C0CF8032
S1132540D12CB7016D5F7F4F82E090E00E9436028C
S1132550C816D90609F049C0C884D12CB7016C5FEC
S11325607F4F82E090E00E943602C816D906E9F552
S11325701F5F1DC0E12EF12C670184E0C80ED11C41
S1132580B60182E090E00E943602AC01B70182E01D
S113259090E00E941502B60183E090E00E943602AA
S11325A0AC01B70183E090E00E9415021F5F4091E7
S11325B0F0064117F8F644504093F00650E061E00D
S11325C070E084E090E00E9415021091F0061F5F15
S11325D085EF91E00E94E80B85EF91E00E94E80B03
S11325E08DE195E00E94E80B01E01C5F8091F0060C
S11325F0811708F088CF0111E0C085EF91E00E94B7
S1132600E80B85EF91E00E94E80B89E395E00E94D6
S1132610E80BD3C083E38093F50685EF91E00E9435
S1132620E80B85EF91E00E94E80B8CE695E00E94B0
S1132630E80B10E00EC05F9BFECFE12EF12C0E9450
S1132640FB0BEDE0F0E0EC0FFD1FEE0DFF1D8083B2
S11326501F5F143080F304E010E07CC0CD84D12CE3
S1132660E02EF12CB7016F5F7F4F85E090E00E9470
S11326703602C816D90609F06CC0CE84D12CB70135
S11326806E5F7F4F85E090E00E943602C816D9063F
S113269009F05FC0CF84D12CB7016D5F7F4F85E017
S11326A090E00E943602C816D90609F052C0C888C4
S11326B0D12CB7016C5F7F4F85E090E00E94360219
S11326C0C816D90609F045C011E0100F1DC0E12E4F
S11326D0F12C670184E0C80ED11CB60185E090E0BE
S11326E00E943602AC01B70185E090E00E94150219
S11326F0B60186E090E00E943602AC01B70186E0A4
S113270090E00E9415021F5F809170008117F8F617
S11327109CEF980F90937000011102C08093700099
S11327204091700050E062E070E084E090E00E942C
S11327301502009170000F5F85EF91E00E94E80B95
S113274085EF91E00E94E80B8DE195E00E94E80B93
S113275011E00C5F80917000801708F07FCF111199
S11327602CC085EF91E00E94E80B85EF91E00E9478
S1132770E80B89E395E00E94E80B1FC0803379F4ED
S11327801092F40685EF91E00E94E80B85EF91E04A
S11327900E94E80B8BE895E00E94E80B0EC088309D
S11327A061F085EF91E00E94E80B85EF91E00E94D3
S11327B0E80B80E692E00E94E80B8091D106882322
S11327C081F08091F506883361F41092D1060E945D
S11327D0320985EF91E00E94E80B8AE995E00E94B6
S11327E0E80B8091F4068823E9F185EF91E00E94DB
S11327F0E80B83EB95E00E94E80B85EF91E00E94E3
S1132800E80B8EEC95E00E94E80B80EE95E00E94C8
S1132810E80B83EF95E00E94E80B82E096E00E94CB
S1132820E80B82E196E00E94E80B83E296E00E94C6
S1132830E80B83E396E00E94E80B8091D10688239D
S113284021F089E496E00E94E80B8EE596E00E9470
S1132850E80B89E696E00E94E80B85EF91E00E9480
S1132860E80B66C285EF91E00E94E80B85EF91E0EA
S11328700E94E80B8EE792E00E94E80B8EE892E05B
S11328800E94E80B85EF91E00E94E80B51C2823070
S113289009F04EC28CB18093F5068091F20688232C
S11328A029F088E08093F5061092F2068091F506EF
S11328B0813309F08AC085EF91E00E94E80B85EF2F
S11328C091E00E94E80B87EB92E00E94E80B8AEE0D
S11328D092E00E94E80B85EF91E00E94E80B5F9B79
S11328E0FECF0E94FB0B8093F506813369F40E94AE
S11328F05F098091D106811161C00E94320988EF7D
S113290092E00E94AC085AC0823369F40E947B09A9
S11329108091D106811152C00E94320987E093E070
S11329200E94AC084BC0833369F40E9497098091DC
S1132930D106811143C00E94320986E193E00E94CE
S1132940AC083CC0843369F40E94A8098091D10684
S1132950811134C00E94320985E293E00E94AC08E0
S11329602DC0853369F40E94B9098091D106811183
S113297025C00E94320984E393E00E94AC081EC083
S11329808633E1F40E945F090E947B090E94970943
S11329900E94A8090E94B9098091D10681110EC034
S11329A00E94320983E493E00E94AC0860E081E075
S11329B00E94360980E093E00E94AC0860ED77E065
S11329C080E090E00E94200B7AC1823309F08AC033
S11329D085EF91E00E94E80B85EF91E00E94E80BFF
S11329E081E593E00E94E80B8AEE92E00E94E80BF6
S11329F085EF91E00E94E80B5F9BFECF0E94FB0BEA
S1132A008093F506813369F40E9465098091D106AB
S1132A10811161C00E94320984E893E00E94AC08ED
S1132A205AC0823369F40E9481098091D1068111D0
S1132A3052C00E94320983E993E00E94AC084BC063
S1132A40833369F40E949D098091D106811143C0AA
S1132A500E94320982EA93E00E94AC083CC08433AD
S1132A6069F40E94AE098091D106811134C00E949C
S1132A70320981EB93E00E94AC082DC0853369F4E0
S1132A800E94BF098091D106811125C00E9432099C
S1132A9080EC93E00E94AC081EC08633E1F40E94EF
S1132AA065090E9481090E949D090E94AE090E9445
S1132AB0BF090E9432098091D10681110CC083E4C0
S1132AC093E00E94AC0860E081E00E9436098CE843
S1132AD093E00E94AC0860ED77E080E090E00E9413
S1132AE0200BEDC0833309F0CFC085EF91E00E9445
S1132AF0E80B85EF91E00E94E80B8FEC93E00E94D5
S1132B00E80B85EF91E00E94E80B1092E906109221
S1132B10EA061092EB061092EC0600E038C05F9BC8
S1132B20FECFE02EF12C0E94FB0B182FF701E3518E
S1132B30F94F808380ED810F8A3038F520E030E052
S1132B4040E251E46091E9067091EA068091EB0657
S1132B509091EC060E9421186B017C01612F70E0BA
S1132B6060537109072E000C880B990B0E946C1797
S1132B70A70196010E94CA166093E9067093EA06BB
S1132B808093EB069093EC0601C005E00F5F0330E1
S1132B9030F28091D106811123C00E94320989EF5D
S1132BA093E00E94AC0860E081E00E94360982E074
S1132BB094E00E94AC086091E9067091EA06809165
S1132BC0EB069091EC060E943B170E94BF0885E239
S1132BD00E946B0860ED77E080E090E00E94200B9B
S1132BE0C090E906D090EA06E090EB06F090EC067F
S1132BF020E030E048E652E4C701B6010E941C1808
S1132C008823BCF020E030E040E752E4C701B6017D
S1132C100E94361718166CF080E090E0ACE5B2E440
S1132C208093E9069093EA06A093EB06B093EC0632
S1132C3020C020E030E040E752E4C701B6010E9422
S1132C401C181816B4F420E030E048E752E4C70139
S1132C50B6010E943617181664F080E090E0A2E8EE
S1132C60B2E48093E9069093EA06A093EB06B0934E
S1132C70EC066091E9067091EA068091EB0690916A
S1132C80EC060E945A0A1BC0803359F41092F406D1
S1132C9085EF91E00E94E80B80E996E00E94E80B42
S1132CA00EC0883061F085EF91E00E94E80B85EF5B
S1132CB091E00E94E80B80E692E00E94E80B80918C
S1132CC0F406882349F185EF91E00E94E80B85EF33
S1132CD091E00E94E80B83EB95E00E94E80B85EFFE
S1132CE091E00E94E80B8DE996E00E94E80B8CEAE3
S1132CF096E00E94E80B8CEB96E00E94E80B8EE5D0
S1132D0096E00E94E80B89E696E00E94E80B85EFC6
S1132D1091E00E94E80B0CC08EE792E00E94E80B61
S1132D208EE892E00E94E80B85EF91E00E94E80BA8
S1132D3064960FB6F894DEBF0FBECDBFDF91CF917E
S1132D40FF91EF91BF91AF919F918F917F916F917F
S1132D505F914F913F912F911F910F91FF90EF90B1
S1132D60DF90CF90BF90AF909F908F907F906F90A7
S1132D705F904F900F900FBE0F901F9018951F9269
S1132D800F920FB60F9211240F900FBE0F901F9049
S1132D9018955058BB27AA270E94E1160C94E217F5
S1132DA00E94D41738F00E94DB1720F039F49F3FBB
S1132DB019F426F40C94D1170EF4E095E7FB0C9467
S1132DC0CB17E92F0E94F31758F3BA17620773075A
S1132DD08407950720F079F4A6F50C9415180EF4E1
S1132DE0E0950B2EBA2FA02D0B01B90190010C0117
S1132DF0CA01A0011124FF27591B99F0593F50F42F
S1132E00503E68F11A16F040A22F232F342F442786
S1132E10585FF3CF469537952795A795F04053957E
S1132E20C9F77EF41F16BA0B620B730B840BBAF04E
S1132E309150A1F0FF0FBB1F661F771F881FC2F7B9
S1132E400EC0BA0F621F731F841F48F487957795CD
S1132E506795B795F7959E3F08F0B0CF9395880F87
S1132E6008F09927EE0F9795879508950E94A71764
S1132E7008F481E008950E94FB1788F09F5798F0AA
S1132E80B92F9927B751B0F0E1F0660F771F881F6B
S1132E90991F1AF0BA95C9F714C0B13091F00E9485
S1132EA01518B1E008950C941518672F782F88270A
S1132EB0B85F39F0B93FCCF3869577956795B395AC
S1132EC0D9F73EF490958095709561957F4F8F4F1B
S1132ED09F4F0895E89409C097FB3EF49095809520
S1132EE0709561957F4F8F4F9F4F9923A9F0F92FCC
S1132EF096E9BB279395F695879577956795B7954A
S1132F00F111F8CFFAF4BB0F11F460FF1BC06F5F2F
S1132F107F4F8F4F9F4F16C0882311F096E911C041
S1132F20772321F09EE8872F762F05C0662371F062
S1132F3096E8862F70E060E02AF09A95660F771F76
S1132F40881FDAF7880F9695879597F90895990F52
S1132F500008550FAA0BE0E8FEEF16161706E8075F
S1132F60F907C0F012161306E407F50798F0621B80
S1132F70730B840B950B39F40A2661F0232B242B55
S1132F80252B21F408950A2609F4A140A6958FEF74
S1132F90811D811D089597F99F6780E870E060E0C6
S1132FA008959FEF80EC089500240A9416161706DE
S1132FB018060906089500240A9412161306140626
S1132FC005060895092E0394000C11F4882352F089
S1132FD0BB0F40F4BF2B11F460FF04C06F5F7F4F41
S1132FE08F4F9F4F089557FD9058440F551F59F028
S1132FF05F3F71F04795880F97FB991F61F09F3FE2
S113300079F087950895121613061406551FF2CF0A
S11330104695F1DF08C0161617061806991FF1CF5A
S113302086957105610508940895E894BB27662781
S11330307727CB0197F908950E94A71708F48FEF1B
S113304008950E9434180C94E2170E94D41738F0A3
S11330500E94DB1720F0952311F00C94CB170C94ED
S1133060D11711240C9416180E94F31770F3959F2E
S1133070C1F3950F50E0551F629FF001729FBB276B
S1133080F00DB11D639FAA27F00DB11DAA1F649F07
S11330906627B00DA11D661F829F2227B00DA11DBA
S11330A0621F739FB00DA11D621F839FA00D611D40
S11330B0221F749F3327A00D611D231F849F600D61
S11330C0211D822F762F6A2F11249F5750409AF08A
S11330D0F1F088234AF0EE0FFF1FBB1F661F771F16
S11330E0881F91505040A9F79E3F510580F00C94E1
S11330F0CB170C9416185F3FE4F3983ED4F38695EF
S113310077956795B795F795E7959F5FC1F7FE2B80
S1133110880F911D9695879597F9089597FB072E2B
S113312016F4009407D077FD09D00E94CF1807FC4D
S113313005D03EF4909581959F4F089570956195C3
S11331407F4F0895A1E21A2EAA1BBB1BFD010DC0DF
S1133150AA1FBB1FEE1FFF1FA217B307E407F50743
S113316020F0A21BB30BE40BF50B661F771F881F1F
S1133170991F1A9469F760957095809590959B01B5
S1133180AC01BD01CF0108950E94E318A59F900DE5
S1133190B49F900DA49F800D911D11240895AA1B26
S11331A0BB1B51E107C0AA1FBB1FA617B70710F02E
S11331B0A61BB70B881F991F5A95A9F78095909560
S11331C0BC01CD010895A29FB001B39FC001A39F8C
S11331D0700D811D1124911DB29F700D811D11244C
S10B31E0911D0895F894FFCF3E
S11331E83132330034353600373839002A30230079
S11331F8045468652073797374656D20697320625B
S1133208757379210D0A0075736572206E616D6599
S11332183A0070617373776F72643A0053686F771A
S11332282070617373776F7264202A006F74686505
S1133238722070726573732023005573657220764B
S1133248657269666965640057656C636F6D6521AD
S11332580041736B696E672041646D696E00312E9D
S11332684163636570742075736572207265717546
S113327865737420746F20636F6E74726F6C20743E
S113328868652073797374656D0D0A00322E526572
S11332986A656374207573657220726571756573E8
S11332A87420746F20636F6E74726F6C2074686519
S11332B82073797374656D0D0A0041646D696E201D
S11332C844656E69656400557365722F5061737344
S11332D82057726F6E670054727920616761696E56
S11332E800466972696E6720416C61726D210053F2
S11332F8797374656D206F6E6C696E65210D0A00B3
S1133308507265737320616E79206B657920746FD0
S113331820636F6E74726F6C2074686520737973A0
S113332874656D0D0A00506C6561736520656E7473
S1133338657220796F757220757365726E616D653B
S11333480D0A00506C6561736520656E74657220A2
S1133358796F75722070617373776F72640D0A00E8
S113336841646D696E2065786973742C2057656CA7
S1133378636F6D65210D0A0041646D696E20646F89
S11333886573206E6F742065786973742E20506C91
S1133398656173652074727920616761696E0D0ACD
S11333A800557365722065786973742C2057656CB1
S11333B8636F6D65210D0A005573657220646F652E
S11333C873206E6F742065786973742E20506C6551
S11333D86173652074727920616761696E0D0A00F2
S11333E8506C6561736520656E74657220636F6DDA
S11333F86D616E64206E756D6265720D0A00312E02
S1133408456E7465722041646D696E0D0A00322E32
S1133418456E74657220557365720D0A00446F6FAA
S113342872204F70656E65642100446F6F7220438B
S11334386C6F73656421005768696368206C616DFB
S11334487020646F20796F752077616E7420746FB3
S1133458206265206F70656E65642846726F6D2002
S11334683120746F2035290D0A00362E416C6C20EA
S11334784C616D70730D0A004C616D702831292000
S11334884F70656E6564004C616D70283229204F59
S113349870656E6564004C616D70283329204F7027
S11334A8656E6564004C616D70283429204F706521
S11334B86E6564004C616D70283529204F70656E07
S11334C8656400416C6C204C616D707320417265B9
S11334D8005768696368206C616D7020646F207997
S11334E86F752077616E7420746F20626520436C59
S11334F86F7365642846726F6D203120746F2035B0
S1133508290D0A004C616D7028312920436C6F73B2
S11335186564004C616D7028322920436C6F7365B3
S113352864004C616D7028332920436C6F736564A3
S1133538004C616D7028342920436C6F73656400F6
S11335484C616D7028352920436C6F736564005095
S11335586C6561736520656E746572207468652096
S113356870657263656E74616765206F6620746840
S113357865206C616D700D0A004C616D70204F4EB2
S1133588210050657263656E746167653A00312E77
S11335984B657970616420757365720D0A00322E6B
S11335A8504320757365720D0A00332E414420750B
S11335B87365720D0A00506C6561736520656E74DD
S11335C865722034206E756D626572732061732094
S11335D8757365726E616D650D0A00506C65617373
S11335E86520656E7465722034206E756D6265722F
S11335F8732061732070617373776F72640D0A00AE
S113360855736572206164646564207375636365CA
S1133618737366756C6C790D0A00446F20796F7545
S11336282077616E7420746F2064656C65746520FE
S11336386B65797061642075736572202C20504322
S11336482075736572206F722041646D696E2075F0
S11336587365720D0A00312E4B65797061642055CB
S11336687365720D0A00322E504320557365720D2E
S11336780A00332E414420557365720D0A00506CBC
S11336886561736520656E74657220746865204B86
S11336985020757365726E616D650D0A005573650A
S11336A8722064656C6574656420737563636573FF
S11336B87366756C6C790D0A0055736572206973AD
S11336C8206E6F742065786973740D0A00506C65F8
S11336D861736520656E7465722074686520504353
S11336E820757365726E616D650D0A00506C6561B5
S11336F8736520656E746572207468652041442082
S1133708757365726E616D650D0A004279652D42A7
S1133718796520757365720D0A004B65797061646B
S11337282075736572206B69636B6564206F7574AB
S11337380D0A0057616974696E6720666F72207993
S11337486F757220636F6D6D616E640D0A00312EA2
S11337584F70656E2074686520646F6F720D0A007F
S1133768322E436C6F73652074686520646F6F72C2
S11337780D0A00332E4F70656E206C616D70730DE9
S11337880A00342E436C6F7365206C616D70730D81
S11337980A00352E56617269616E74206C616D7011
S11337A80D0A0036416464206E657720757365726E
S11337B80D0A00372E44656C657465206578697355
S11337C87420757365720D0A00382E466972652077
S11337D84B657970616420757365720D0A00302E2B
S11337E84C6F676F75740D0A005265706C79207799
S11337F869746820746865206E756D626572206FDF
S1133808662074686520636F6D6D616E640D0A00CF
S11338184279652D427965207573657200312E4FA2
S113382870656E206C616D70730D0A00322E436CE6
S11338386F7365206C616D70730D0A00332E5661C9
S11138487269616E74206C616D700D0A00006F
S9030000FC
